S010000045475F46696E616C2E737265633F
S11300000C9456000C9473000C9473000C947300BD
S11300100C9473000C9473000C9473000C944003C0
S11300200C9473000C9473000C9473000C94730080
S11300300C9473000C9473000C9473000C94730070
S11300400C9473000C9473000C9473000C94730060
S11300500C9473000C9473000C9473000C94730050
S11300600C9473000C9473000C9473000C94730040
S11300700C9473000C9473000C9473000C94730030
S11300800C9473000C9473000C9473000C94730020
S11300900C9473000C9473000C9473000C94730010
S11300A00C9473000C9473000C94730011241FBE01
S11300B0CFEFDAE0DEBFCDBF11E0A0E0B1E0EAECC3
S11300C0F8E002C005900D92AA31B107D9F721E0FA
S11300D0AAE1B1E001C01D92A133B207E1F70E9489
S11300E090030C9463040C94000090E080E80FB635
S11300F0F89480936100909361000FBE519A5098D8
S11301003E9A3F9A549A569A579A85E090E04698B8
S1130110479A2FEF30E742E0215030404040E1F76A
S113012000C00000469A47982FEF30E742E0215084
S113013030404040E1F700C00000019741F7469885
S113014047988FE79FE422E1815090402040E1F7F7
S113015000C00000089583E390E09093CD00809365
S1130160CC00E8ECF0E080818D7F8083EAECF0E065
S1130170808186608083E9ECF0E0808188618083FF
S11301800895E8ECF0E0908195FFFDCF8093CE00D8
S11301900895CF93DF93EC018881882331F0219671
S11301A00E94C10089918111FBCFDF91CF91089505
S11301B08330A1F028F4813049F0823059F01EC018
S11301C08530A1F078F08630A9F018C05C9A5E986A
S11301D05F9A08955C985E985F9A08955C985E9A19
S11301E05F9808955C9A5E985F9808955C985E980D
S11301F05F9808955C9A5E9A5F9808958AE091E00A
S11302000E94C9000895CF93C1E08C2F0E94D800AA
S113021080E50E94070480E00E943B0481E50E947F
S11302202F040E945804809324010E94320480E524
S11302300E9407048FE30E943B0480E20E943B0477
S11302400E9432042FE78FE492E1215080409040D5
S1130250E1F700C0000080E50E9407048DE30E94DE
S11302603B048CE00E943B040E9432042FEF80E7A1
S113027092E0215080409040E1F700C00000CF5F41
S1130280C73019F6CF910895CF93DF9380E50E948C
S1130290070480E20E943B0481E50E942F040E942F
S11302A04D04CAE1D1E08A830E944D048B830E94ED
S11302B04D048C830E944D048D830E944D048E83D3
S11302C00E944D048F830E944D0488870E94580425
S11302D089870E943204DF91CF910895259A209A4C
S11302E0229A219A23988CB580658CBD8CB5816047
S11302F08CBD8CB58D7F8CBD8DB581608DBD289AEC
S11303002D988FE19EE40197F1F700C00000089555
S11303108EBD0DB407FEFDCF8EB508959AE19A9572
S1130320F1F700C028989AE19A95F1F700C00E946D
S113033088018AE18A95F1F700C08FEF0E94880155
S11303409AE19A95F1F700C0289A0895CF93C62FA1
S11303509AE19A95F1F700C028989AE19A95F1F7F5
S113036000C0805E0E9488018AE18A95F1F700C08E
S11303708C2F0E9488019AE19A95F1F700C0289A7F
S1130380CF9108950F931F93CF93DF93062F8AE1A4
S11303908A95F1F700C028988AE18A95F1F700C0A0
S11303A08AE20E948801002381F0C5E0D1E0015077
S11303B010E00A5F1E4F8AE18A95F1F700C0899127
S11303C00E948801C017D107B1F78AE18A95F1F735
S11303D000C0289ADF91CF911F910F9108950F9338
S11303E01F93CF93DF93062F8AE18A95F1F700C01C
S11303F028988AE18A95F1F700C080E30E94880179
S1130400002381F0C0E0D1E0015010E00F5F1E4FE7
S11304108AE18A95F1F700C089910E948801C0178A
S1130420D107B1F78AE18A95F1F700C0289ADF91E4
S1130430CF911F910F9108958AE18A95F1F700C039
S113044028988AE18A95F1F700C081EE0E9488011C
S11304508AE18A95F1F700C0289A8AE18A95F1F732
S113046000C008952D9880E00E948E01682F6E7F51
S113047080E00E94A60180E00E948E01682F6260E5
S113048080E00E94A6010E941C0260E787E00E94AF
S1130490A60180E00E948E01682F606380E00E94C4
S11304A0A6018BE291E00197F1F700C000000895E6
S11304B08AE18A95F1F700C028988AE18A95F1F7D4
S11304C000C082EE0E9488018AE18A95F1F700C09B
S11304D0289A8AE18A95F1F700C008952D9880E062
S11304E00E948E01682F636080E00E94A6010E9432
S11304F0580260E787E00E94A60180E00E948E0116
S1130500682F606380E00E94A6012D9A8BE291E03F
S11305100197F1F700C00000089561E081E00E94B6
S1130520A60161E082E00E94A60163E083E00E94EC
S1130530A60169E685E00E94A60166E286E00E94C3
S1130540A60165E085E091E00E94C20165E080E0DB
S113055091E00E94EF016AE081E10E94A6016FEF41
S113056084E00E94A6010E946E028FE19EE401973E
S1130570F1F700C0000008950F931F93CF93DF930A
S1130580662369F0CAE1D1E06150062F10E0055EF0
S11305901E4F89910E948801C017D107D1F7DF91BE
S11305A0CF911F910F9108950E941C0228988AE10F
S11305B08A95F1F700C080EA0E9488018AE18A9551
S11305C0F1F700C06AE08AE191E00E94BC028AE18E
S11305D08A95F1F700C0289A8AE18A95F1F700C05C
S11305E02D9A8AE18A95F1F700C02D9808952898EC
S11305F08FEF0E948801289A08950E94F702982F8D
S1130600907381E009F080E00895EAE6F0E08081EB
S11306108F7E8083EE9A78940895CF92DF92EF9242
S1130620FF920F931F93CF93DF93442301F1082F7D
S1130630192FEB014150E42EF12C8FEFE81AF80A40
S1130640E60EF71EF80181918F010E9488016E0168
S113065089930E94C100F60180818A3A29F480912D
S113066030018F5F80933001CE15DF0559F7DF919C
S1130670CF911F910F91FF90EF90DF90CF9008954D
S11306801F920F920FB60F9211242F933F934F9303
S11306905F936F937F938F939F93AF93BF93EF93E6
S11306A0FF93F8942D9828988AE18A95F1F700C071
S11306B081E60E9488018AE18A95F1F700C04AE048
S11306C066E271E0CB010E940D038AE18A95F1F79D
S11306D000C0289A8AE18A95F1F700C060E487E0B7
S11306E00E94A601FF91EF91BF91AF919F918F91CD
S11306F07F916F915F914F913F912F910F900FBE1A
S11307000F901F9018958AE18A95F1F700C060E771
S113071087E00E94A6018AE18A95F1F700C0089556
S11307200E9475000E94DA030E94AB000E946E01D1
S11307300E948D020E9405030E9403011092300161
S113074082E080931A0181E0809325010E9458027F
S11307500E9483032D9ACAE1D1E011E08091300117
S11307608A30E1F7109230010E9432028091250113
S11307700E94D8008091250189830E944401CE0102
S11307800E94D4020E94FD028111FCCF80912501B8
S11307908F5F8093250180912501873014F0109399
S11307A025010E946E020E9458020E9483032D9A22
S11307B07894D4CF1092B9008CE08093B800089557
S11307C094EA9093BC00ECEBF0E090819923ECF771
S11307D09091B900987F983011F09031A1F48093F2
S11307E0BB0084E88093BC00ECEBF0E080818823BC
S11307F0ECF79091B900987F983139F081E090340A
S113080029F480E0089581E0089580E00895CF936D
S1130810DF93ECEBF0E024EAA9EBB0E0CBEBD0E023
S113082034E844E9208390819923ECF79C91987FE4
S1130830983011F09031B1F78883308390819923F7
S1130840ECF79C91987F903211F0983529F440830D
S1130850908194FDFDCFE6CFDF91CF9108950E9462
S1130860E003089584E98093BC00ECEBF0E0808120
S113087084FDFDCF08958093BB0084E88093BC0081
S1130880ECEBF0E080818823ECF79091B900987F3D
S113089081E0983209F480E0089584EC8093BC00F0
S11308A0ECEBF0E080818823ECF78091BB000895A5
S11308B084E88093BC00ECEBF0E080818823ECF7C3
S10D08C08091BB000895F894FFCF67
S11308CA2122232425212223242557726F6E67208F
S10D08DA4368616E6E656C210A002C
S9030000FC
