:100000000C9456000C9473000C9473000C947300C1
:100010000C9473000C9473000C9473000C94B9014D
:100020000C9473000C9473000C9473000C94730084
:100030000C9473000C9473000C9473000C94730074
:100040000C9473000C9473000C9473000C94730064
:100050000C9473000C9473000C9473000C94730054
:100060000C9473000C9473000C9473000C94730044
:100070000C9473000C9473000C9473000C94730034
:100080000C9473000C9473000C9473000C94730024
:100090000C9473000C9473000C9473000C94730014
:1000A0000C9473000C9473000C94730011241FBE05
:1000B000CFEFDAE0DEBFCDBF11E0A0E0B1E0E8E1D4
:1000C000FDE002C005900D92A630B107D9F721E0FE
:1000D000A6E0B1E001C01D92A738B207E1F70E9487
:1000E0003A020C948A060C940000823091F030F4AD
:1000F000882359F08130B1F45C9808C0843069F0ED
:1001000050F0853079F45C9A0BC05C9A5E985F9AE7
:1001100009C05C9805C05C9A01C05C985E9801C0FB
:100120005E9A5F9882E08A95F1F700C00895CF93B8
:10013000DF93C0E08C2F0E94750080E50E942006AE
:1001400080E00E94510681E50E9447060E946C06ED
:10015000809306010E94490680E50E9420068FE3F5
:100160000E94510680E20E9451060E944906CF5F1C
:10017000C63001F72FE78FE492E121508040904094
:10018000E1F700C00000C0E0D0E08C2F0E947500B5
:10019000209711F180E50E94200681E40E9451061B
:1001A00081E20E9451060E9449068FE19EE4019778
:1001B000F1F700C0000080E50E94200682E40E9462
:1001C000510684E00E9451060E9449068FE19EE498
:1001D0000197F1F700C0000080E50E9420068DE342
:1001E0000E9451068CE00E9451060E944906219609
:1001F000C630D10551F69FEF20E782E091502040B4
:100200008040E1F700C00000DF91CF910895CF93C7
:10021000DF93EB010E94750080E50E94200680E2DA
:100220000E94510681E50E9447060E94620688836B
:100230000E94620689830E9462068A830E94620687
:100240008B830E9462068C830E9462068D830E94CB
:1002500062068E830E946C068F83DF91CF910C948F
:100260004906CF93DF93EB010E94750080E50E9461
:10027000200680E20E94510681E50E9447060E9406
:10028000620688830E94620689830E9462068A83CE
:100290000E9462068B830E9462068C830E94620623
:1002A0008D830E9462068E830E9462068F830E9465
:1002B000620688870E94620689870E9462068A8792
:1002C0000E9462068B870E9462068C870E946C06E1
:1002D0008D87DF91CF910C94490690E080E80FB6AE
:1002E000F89480936100909361000FBE519A5098EA
:1002F0003E9A3F9A549A569A579A86E090E04698CA
:10030000479A2FEF30E742E0215030404040E1F77C
:1003100000C00000469A47982FEF30E742E0215096
:1003200030404040E1F700C00000019741F7469897
:1003300047988FE79FE422E1815090402040E1F709
:1003400000C00000089583E390E09093CD00809377
:10035000CC00E8ECF0E080818D7F8083EAECF0E077
:10036000808186608083E9ECF0E080818861808311
:1003700008951F920F920FB60F9211242F933F935F
:100380004F935F936F937F938F939F93AF93BF939D
:10039000EF93FF93CF93DF9300D0CDB7DEB7F89400
:1003A0000E946203AE014F5F5F4FBE016E5F7F4FE1
:1003B00087E091E00E94BE0387EC90E00197F1F79F
:1003C00000C0000060E487E00E94FD030F900F90E2
:1003D000DF91CF91FF91EF91BF91AF919F918F915D
:1003E0007F916F915F914F913F912F910F900FBE31
:1003F0000F901F9018958130F1F492E0909357017F
:10040000909347018093480190935801909377010E
:100410009093670183E08093680184E08093780182
:10042000909337019093270185E08093280186E01F
:1004300080933801089582E080935B01809351019D
:100440008093470191E0909348018093520193E09B
:1004500090935C0180937B0180937101809367018D
:1004600084E08093680185E08093720186E0809348
:100470007C010895CF93DF9300D000D01F92CDB7B9
:10048000DEB70E946D010E94F8050E94A3010E9440
:10049000D80521E045E061E089E60E94EB0440E0F8
:1004A00061E080E091E00E9495050E94970080E065
:1004B0000E94FB01F8940E94460441E061E081E063
:1004C0000E9420040E9448030E9452030E9442049A
:1004D0000E945C038BE291E00197F1F700C00000FD
:1004E0001D8280918100826080938100109285003E
:1004F0001092840000E069E471E080E0013089F549
:100500000E94310169E571E081E00E9431010E94A1
:10051000480340E267E471E080E00E94D20569E6AA
:1005200071E082E00E94310169E771E083E00E949E
:1005300031010E94480340E267E671E080E00E94DA
:10054000D20569E271E084E00E94310169E371E063
:1005500085E00E9431010E94480340E267E271E0B9
:1005600028C00E94070163E571E081E00E94070155
:100570006DE571E082E00E9407010E9448034EE1B0
:1005800067E471E080E00E94D20569E671E083E0F3
:100590000E94070163E771E084E00E9407016DE7B4
:1005A00071E085E00E9407010E9448034EE167E682
:1005B00071E080E00E94D2058091840090918500D6
:1005C0008031974228F492E09A95F1F700C0F4CF79
:1005D00010928500109284001D82AE014F5F5F4F24
:1005E000BE016E5F7F4FCE0103960E942A038823CF
:1005F00009F481CF0E9442048B81882309F47BCFC8
:100600000E9462030E949C03882359F0AE014C5F54
:100610005F4FBE016B5F7F4F87E091E00E94BE039A
:10062000F1CF0E945C0310910701101709F463CF0A
:10063000123008F060CF812F0E94FB01012F5BCFA9
:1006400028988FEF0E94F205289A92E09A95F1F788
:1006500000C00895EF92FF920F931F93CF93DF9303
:100660007C018B01EA010E942003982F9074F7010E
:100670009083982F9072F8019083982F90719883AF
:100680008077DF91CF911F910F91FF90EF900895A8
:10069000289882EE0E94F205289A82E08A95F1F766
:1006A00000C00895289881EE0E94F205289A82E001
:1006B0008A95F1F700C008952D9A8DE08A95F1F79B
:1006C000000008952D9808950E9420038695877054
:1006D00008950F931F93CF938C01C62F289880E322
:1006E0000E94F205CC2349F0F801EC0FF11D31977F
:1006F00080810E94F205C150F5CF289A82E08A9548
:10070000F1F700C0CF911F910F91089528980E9492
:10071000F2058FEF0E94F205289A92E09A95F1F780
:1007200000C0089580E00E9486038270089587E1EA
:100730000E9486038170089587E10E948603809558
:1007400081700895863018F48F5E0C94860380E0E3
:10075000089580E60C948603CF93863060F4C82F0A
:100760008CE10E94860321E030E001C0220FCA958F
:10077000EAF7822301C080E0CF910895EF92FF92C3
:100780000F931F93CF93DF93F82EE92EEB018A018D
:100790000E949703882321F01882F801108226C056
:1007A0000E946403F80180830E94AC03882319F03F
:1007B0000E94A90304C0F80180810E94A2038883DB
:1007C0002898188181E60E94F2050F2DCF2DDE2D8D
:1007D0008C2F801B811728F480E00E94F2058993FA
:1007E000F7CF289AF2E0FA95F1F700C0DF91CF91A8
:1007F0001F910F91FF90EF900895CF93C62F2898E7
:10080000805E0E94F2058C2F0E94F205289A82E0F9
:100810008A95F1F700C0CF9108950E94920381114B
:100820000EC02D980E948603682F626080E00E94AF
:10083000FD038FE99FE00197F1F700C000000895E4
:100840001F93CF93DF93182FD62FC42F80E00E94E1
:1008500086038F78111102C060E001C060E4D111FD
:1008600002C020E001C020E2C11102C090E001C03E
:1008700090E1682B622B692B80E0DF91CF911F9173
:100880000C94FD0360E787E00C94FD032D9880E055
:100890000E948603682F616080E00E94FD030C9433
:1008A00042048E3708F08DE7682F85E00C94FD0335
:1008B000833028F0682F863018F065E001C063E0CF
:1008C000625083E00C94FD03CF93C82F80E00E9418
:1008D0008603682F637FCC2329F0C13011F4686050
:1008E00001C06C6080E0CF910C94FD031F93CF9307
:1008F000DF93EB01142F8230A8F42898865D0E94C4
:10090000F205112349F0FE01E10FF11D31978081BD
:100910000E94F2051150F5CF289A82E08A95F1F7EE
:1009200000C00CC0863050F4C40FD11D21976881DF
:10093000865FDF91CF911F910C94FD03DF91CF91E2
:100940001F910895262F8A3F910538F0813A3FE0A4
:10095000930728F080EA9FE002C08AEF90E06AEFF8
:1009600070E00E947606615030E1639FC00111245F
:10097000622F203108F06FE0682B84E00C94FD03B7
:10098000863030F4613208F060E28F5E0C94FD0333
:100990000895CF93C82F86E00E948603682F677D55
:1009A000C11102C0606203C0C13009F0686086E016
:1009B000CF910C94FD03CF93C82F86E00E9486034D
:1009C0006C2FC43008F063E0660F897F682B86E0E7
:1009D000CF910C94FD030F931F93CF93DF93082FB8
:1009E000162FD42FC22F0E940D04802F0E94510475
:1009F000812F0E94C90483E00E94DB048D2F0E9496
:100A000058048C2F0E9464046FE084EF91E0DF9122
:100A1000CF911F910F910C94A204CF93863078F45C
:100A2000C82F81E00E94860361E070E001C0660F7C
:100A3000CA95EAF7682B81E0CF910C94FD03CF9122
:100A40000895CF93863078F4C82F82E00E94860301
:100A500061E070E001C0660FCA95EAF7682B82E09A
:100A6000CF910C94FD03CF9108958DE10E948603F0
:100A7000682F64608DE10C94FD03CF938630A0F461
:100A8000C82F0E9435058C2F0E940D058CE10E9415
:100A9000860361E070E001C0660FCA95EAF7682B33
:100AA0008CE1CF910C94FD03CF9108950E94350500
:100AB0008DE10E948603682F62608DE10C94FD0336
:100AC0008DE10E948603682F6D7F8DE10C94FD03FC
:100AD0008DE10E948603682F61608DE10C94FD0317
:100AE0001F93CF93DF93C82F142FD22F45E00E947E
:100AF00076048C2F0E94210560E28C2F0E94C00496
:100B00008C2F0E943D05112319F00E94560502C04A
:100B10000E946005DD2329F0DF91CF911F910C9495
:100B20006805DF91CF911F9108950F931F93CF9385
:100B3000DF93EC01162F042F65E00E946903202F3C
:100B4000412FBE0180E0DF91CF911F910F910C9456
:100B500070050F931F93CF93DF93EC018C01060F69
:100B6000111DC017D10721F089910E94F205F9CF1C
:100B7000DF91CF911F910F9108951F93CF93DF9332
:100B8000EB01142F28980E94F205612FCE010E94DC
:100B9000A905289A82E08A95F1F700C0DF91CF91EC
:100BA0001F910895863018F488550C94BD0508955A
:100BB000259A209A229A219A23988CB580658CBD1B
:100BC0008CB581608CBD8CB58D7F8CBD8DB5816001
:100BD0008DBD289A2D988FE19EE40197F1F700C012
:100BE000000008958EBD0DB407FEFDCF8EB50895AB
:100BF0001092B9008CE08093B800089594EA909325
:100C0000BC009091BC0097FFFCCF9091B900987FF9
:100C1000983021F0903111F081E008958093BB006D
:100C200084E88093BC008091BC0087FFFCCF80915A
:100C3000B900887F883111F0803471F780E0089521
:100C400024EA34E844E92093BC009091BC0097FF6B
:100C5000FCCF9091B900987F983011F0903199F7BE
:100C60008093BB003093BC009091BC0097FFFCCFF9
:100C70009091B900987F903211F0983539F44093F3
:100C8000BC009091BC0094FDFCCFDDCF08950C9486
:100C9000FE0584E98093BC008091BC0084FDFCCFFC
:100CA00008958093BB0084E88093BC008091BC00D1
:100CB00087FFFCCF9091B900987F81E0983209F4CA
:100CC00080E0089584EC8093BC008091BC0087FF95
:100CD000FCCF8091BB00089584E88093BC00809194
:100CE000BC0087FFFCCF8091BB000895AA1BBB1BF3
:100CF00051E107C0AA1FBB1FA617B70710F0A61B1C
:100D0000B70B881F991F5A95A9F780959095BC013C
:080D1000CD010895F894FFCF16
:060D180021222324250026
:00000001FF
