S00D0000476C6F76652E737265631A
S11300000C9456000C9473000C9473000C947300BD
S11300100C9473000C9473000C9473000C94E7011B
S11300200C9473000C9473000C9473000C94730080
S11300300C9473000C9473000C9473000C94730070
S11300400C9473000C9473000C9473000C94730060
S11300500C9473000C9473000C9473000C94730050
S11300600C9473000C9473000C9473000C94730040
S11300700C9473000C9473000C9473000C94730030
S11300800C9473000C9473000C9473000C94730020
S11300900C9473000C9473000C9473000C94730010
S11300A00C9473000C9473000C94730011241FBE01
S11300B0CFEFDAE0DEBFCDBF11E0A0E0B1E0E4E7CE
S11300C0FDE002C005900D92A630B107D9F721E0FA
S11300D0A6E0B1E001C01D92A738B207E1F70E9483
S11300E068020C94B8060C940000823091F030F44D
S11300F0882359F08130B1F45C9808C0843069F0E9
S113010050F0853079F45C9A0BC05C9A5E985F9AE3
S113011009C05C9805C05C9A01C05C985E9801C0F7
S11301205E9A5F9882E08A95F1F700C00895CF93B4
S1130130DF93C0E08C2F0E94750080E50E944E067C
S113014080E00E947F0681E50E9475060E949A065F
S1130150809306010E94770680E50E944E068FE395
S11301600E947F0680E20E947F060E947706CF5F8E
S1130170C63001F72FE78FE492E121508040904090
S1130180E1F700C0000080E50E944E068FE30E9464
S11301907F0680E80E947F060E9477062FEF80E7A3
S11301A092E0215080409040E1F700C00000C0E0A0
S11301B0D0E08C2F0E947500209711F180E50E94F9
S11301C04E0681E40E947F0681E20E947F060E941F
S11301D077068FE19EE40197F1F700C0000080E507
S11301E00E944E0682E40E947F0684E00E947F06FD
S11301F00E9477068FE19EE40197F1F700C00000AA
S113020080E50E944E068DE30E947F068CE00E94EA
S11302107F060E9477062196C630D10551F69FEFDE
S113022020E782E0915020408040E1F700C00000C8
S1130230DF91CF9108950F931F93CF93DF93EB0139
S11302400E947500E1E9F0E080818260808304E926
S113025010E0F8011182108280E50E944E0680E2CF
S11302600E947F0681E50E9475060E94900618820E
S11302700E94900619820E9490061A820E9490069B
S11302801B820E9490061C820E9490061D820E947E
S113029090061E820E949A061F820E947706F80129
S11302A08081918188839983990F880B982F8A8301
S11302B011821082DF91CF911F910F910895CF93F6
S11302C0DF93EB010E94750080E50E944E0680E2F8
S11302D00E947F0681E50E9475060E94900688832D
S11302E00E94900689830E9490068A830E94900649
S11302F08B830E9490068C830E9490068D830E94BB
S113030090068E830E9490068F830E9490068887B1
S11303100E94900689870E9490068A870E94900610
S11303208B870E9490068C870E949A068D87DF91A6
S1130330CF910C94770690E080E80FB6F894809300
S11303406100909361000FBE519A50983E9A3F9A73
S1130350549A569A579A86E090E04698479A2FEF17
S113036030E742E0215030404040E1F700C0000057
S1130370469A47982FEF30E742E021503040404002
S1130380E1F700C00000019741F7469847988FE7CE
S11303909FE422E1815090402040E1F700C000003A
S11303A0089583E390E09093CD008093CC00E8EC33
S11303B0F0E080818D7F8083EAECF0E080818660CC
S11303C08083E9ECF0E080818861808308951F9246
S11303D00F920FB60F9211242F933F934F935F9375
S11303E06F937F938F939F93AF93BF93EF93FF93F9
S11303F0CF93DF9300D0CDB7DEB7F8940E9490037B
S1130400AE014F5F5F4FBE016E5F7F4F87E091E0AB
S11304100E94EC0387EC90E00197F1F700C0000024
S113042060E487E00E942B040F900F90DF91CF913E
S1130430FF91EF91BF91AF919F918F917F916F91B8
S11304405F914F913F912F910F900FBE0F901F908E
S113045018958130F1F492E09093570190934701FD
S1130460809348019093580190937701909367018A
S113047083E08093680184E080937801909337014E
S11304809093270185E08093280186E080933801CA
S1130490089582E080935B0180935101809347012A
S11304A091E0909348018093520193E090935C0112
S11304B080937B01809371018093670184E0809332
S11304C0680185E08093720186E080937C01089541
S11304D0CF93DF9300D000D01F92CDB7DEB70E9438
S11304E09B010E9426060E94D1010E94060621E07B
S11304F045E061E089E60E94190540E061E080E0A2
S113050091E00E94C3050E94970080E00E942902A6
S1130510F8940E94740441E061E081E00E944E047A
S11305200E9476030E9480030E9470040E948A0342
S11305308BE291E00197F1F700C000001D828091E9
S11305408100826080938100109285001092840063
S113055000E069E471E080E0013089F50E945F0108
S113056069E571E081E00E945F010E94760340E248
S113057067E471E080E00E94000669E671E082E0D1
S11305800E945F0169E771E083E00E945F010E94BD
S1130590760340E267E671E080E00E94000669E2CB
S11305A071E084E00E945F0169E371E085E00E94EC
S11305B05F010E94760340E267E271E028C00E9476
S11305C01B0163E571E081E00E941B016DE571E0B0
S11305D082E00E941B010E9476034EE167E471E011
S11305E080E00E94000669E671E083E00E941B013E
S11305F063E771E084E00E941B016DE771E085E030
S11306000E941B010E9476034EE167E671E080E0E0
S11306100E94000680918400909185008031974269
S113062028F492E09A95F1F700C0F4CF1092850077
S1130630109284001D82AE014F5F5F4FBE016E5F5A
S11306407F4FCE0103960E945803882309F481CF7B
S11306500E9470048B81882309F47BCF0E9490034D
S11306600E94CA03882359F0AE014C5F5F4FBE015C
S11306706B5F7F4F87E091E00E94EC03F1CF0E9413
S11306808A0310910701101709F463CF123008F0A0
S113069060CF812F0E942902012F5BCF28988FEF12
S11306A00E942006289A92E09A95F1F700C00895D6
S11306B0EF92FF920F931F93CF93DF937C018B01F3
S11306C0EA010E944E03982F9074F7019083982FAB
S11306D09072F8019083982F907198838077DF91BE
S11306E0CF911F910F91FF90EF900895289882EE7B
S11306F00E942006289A82E08A95F1F700C00895A6
S1130700289881EE0E942006289A82E08A95F1F7C3
S113071000C008952D9A8DE08A95F1F700000895A0
S11307202D9808950E944E038695877008950F931F
S11307301F93CF938C01C62F289880E30E94200634
S1130740CC2349F0F801EC0FF11D319780810E9410
S11307502006C150F5CF289A82E08A95F1F700C0AF
S1130760CF911F910F91089528980E9420068FEF32
S11307700E942006289A92E09A95F1F700C0089505
S113078080E00E94B4038270089587E10E94B4035C
S11307908170089587E10E94B40380958170089563
S11307A0863018F48F5E0C94B40380E0089580E6DC
S11307B00C94B403CF93863060F4C82F8CE10E946C
S11307C0B40321E030E001C0220FCA95EAF7822386
S11307D001C080E0CF910895EF92FF920F931F9391
S11307E0CF93DF93F82EE92EEB018A010E94C50313
S11307F0882321F01882F801108226C00E949203F7
S1130800F80180830E94DA03882319F00E94D70339
S113081004C0F80180810E94D0038883289818813D
S113082081E60E9420060F2DCF2DDE2D8C2F801BFC
S1130830811728F480E00E9420068993F7CF289A34
S1130840F2E0FA95F1F700C0DF91CF911F910F917B
S1130850FF90EF900895CF93C62F2898805E0E9452
S113086020068C2F0E942006289A82E08A95F1F7B0
S113087000C0CF9108950E94C00381110EC02D982D
S11308800E94B403682F626080E00E942B048FE909
S11308909FE00197F1F700C0000008951F93CF93E4
S11308A0DF93182FD62FC42F80E00E94B4038F78D3
S11308B0111102C060E001C060E4D11102C020E067
S11308C001C020E2C11102C090E001C090E1682B98
S11308D0622B692B80E0DF91CF911F910C942B0444
S11308E060E787E00C942B042D9880E00E94B40309
S11308F0682F616080E00E942B040C9470048E3792
S113090008F08DE7682F85E00C942B04833028F0E1
S1130910682F863018F065E001C063E0625083E020
S11309200C942B04CF93C82F80E00E94B403682F4B
S1130930637FCC2329F0C13011F4686001C06C607E
S113094080E0CF910C942B041F93CF93DF93EB01A2
S1130950142F8230A8F42898865D0E942006112363
S113096049F0FE01E10FF11D319780810E942006BC
S11309701150F5CF289A82E08A95F1F700C00CC097
S1130980863050F4C40FD11D21976881865FDF91B2
S1130990CF911F910C942B04DF91CF911F91089557
S11309A0262F8A3F910538F0813A3FE0930728F0DB
S11309B080EA9FE002C08AEF90E06AEF70E00E9454
S11309C0A406615030E1639FC0011124622F2031DD
S11309D008F06FE0682B84E00C942B04863030F42C
S11309E0613208F060E28F5E0C942B040895CF937B
S11309F0C82F86E00E94B403682F677DC11102C02E
S1130A00606203C0C13009F0686086E0CF910C9445
S1130A102B04CF93C82F86E00E94B4036C2FC430FC
S1130A2008F063E0660F897F682B86E0CF910C9411
S1130A302B040F931F93CF93DF93082F162FD42FDC
S1130A40C22F0E943B04802F0E947F04812F0E94AA
S1130A50F70483E00E9409058D2F0E9486048C2FE1
S1130A600E9492046FE084EF91E0DF91CF911F9197
S1130A700F910C94D004CF93863078F4C82F81E082
S1130A800E94B40361E070E001C0660FCA95EAF702
S1130A90682B81E0CF910C942B04CF910895CF93D0
S1130AA0863078F4C82F82E00E94B40361E070E0DD
S1130AB001C0660FCA95EAF7682B82E0CF910C94C7
S1130AC02B04CF9108958DE10E94B403682F6460D4
S1130AD08DE10C942B04CF938630A0F4C82F0E9490
S1130AE063058C2F0E943B058CE10E94B40361E0F6
S1130AF070E001C0660FCA95EAF7682B8CE1CF91CC
S1130B000C942B04CF9108950E9463058DE10E94FB
S1130B10B403682F62608DE10C942B048DE10E9474
S1130B20B403682F6D7F8DE10C942B048DE10E943A
S1130B30B403682F61608DE10C942B041F93CF9351
S1130B40DF93C82F142FD22F45E00E94A4048C2FCA
S1130B500E944F0560E28C2F0E94EE048C2F0E94AD
S1130B606B05112319F00E94840502C00E948E05B2
S1130B70DD2329F0DF91CF911F910C949605DF912D
S1130B80CF911F9108950F931F93CF93DF93EC019F
S1130B90162F042F65E00E949703202F412FBE01DA
S1130BA080E0DF91CF911F910F910C949E050F93DC
S1130BB01F93CF93DF93EC018C01060F111DC01717
S1130BC0D10721F089910E942006F9CFDF91CF91BE
S1130BD01F910F9108951F93CF93DF93EB01142F6F
S1130BE028980E942006612FCE010E94D705289ADA
S1130BF082E08A95F1F700C0DF91CF911F910895AB
S1130C00863018F488550C94EB050895259A209A9B
S1130C10229A219A23988CB580658CBD8CB581600D
S1130C208CBD8CB58D7F8CBD8DB581608DBD289AB2
S1130C302D988FE19EE40197F1F700C0000008951C
S1130C408EBD0DB407FEFDCF8EB508951092B90088
S1130C508CE08093B800089594EA9093BC0090913E
S1130C60BC0097FFFCCF9091B900987F983021F099
S1130C70903111F081E008958093BB0084E8809363
S1130C80BC008091BC0087FFFCCF8091B900887FB5
S1130C90883111F0803471F780E0089524EA34E853
S1130CA044E92093BC009091BC0097FFFCCF909145
S1130CB0B900987F983011F0903199F78093BB0078
S1130CC03093BC009091BC0097FFFCCF9091B90089
S1130CD0987F903211F0983539F44093BC0090918C
S1130CE0BC0094FDFCCFDDCF08950C942C0684E960
S1130CF08093BC008091BC0084FDFCCF0895809358
S1130D00BB0084E88093BC008091BC0087FFFCCFCB
S1130D109091B900987F81E0983209F480E00895B9
S1130D2084EC8093BC008091BC0087FFFCCF809151
S1130D30BB00089584E88093BC008091BC0087FFC9
S1130D40FCCF8091BB000895AA1BBB1B51E107C0D7
S1130D50AA1FBB1FA617B70710F0A61BB70B881F47
S1130D60991F5A95A9F780959095BC01CD010895D6
S1070D70F894FFCF21
S1090D74212223242500C6
S9030000FC
